:1000000012C02BC02AC029C028C027C026C025C0C6
:1000100024C023C022C021C020C01FC01EC01DC0DC
:100020001CC01BC01AC011241FBECFEDCDBF10E0F5
:10003000A0E6B0E0ECE3F2E003C0C89531960D9283
:10004000A037B107D1F710E0A0E7B0E001C01D92E2
:10005000A037B107E1F7C7D0F0C0D2CF8FEF81BB97
:100060000895CF93DF93CDB7DEB728970FB6F894F6
:10007000DEBF0FBECDBF982F462F572FAC2FBD2F01
:100080001196E0E6F0E088E001900D928150E1F7F2
:1000900020E030E06C2F7D2F6F5F7F4F08C0F72F7F
:1000A000E62FE80FF11D892F817080839695822FAE
:1000B0002F5F3F4F923098F798E0FD2FEC2F399645
:1000C00091508291B52FA42F8D934A2F5B2F9923A6
:1000D000B9F728960FB6F894DEBF0FBECDBFDF91FB
:1000E000CF910895992763E570E095D020E0382FEF
:1000F000319542E404C0842F8A95F1F721502317EB
:10010000D1F70895959A81E090E0ECDF959881E031
:1001100090E0E8DF0895959881E090E0E3DF959A1C
:1001200081E090E0DFDF0895959A84E090E0DADFE7
:100130000895959881E090E0D5DF08951F93CF93BF
:10014000DF93D92FC82FF5DF18E08881882311F4B9
:10015000D9DF01C0E0DF21961150B9F7E5DFDF916B
:10016000CF911F910895682F792F40E050E00DC086
:100170002EE531E0E4EFF1E08E2F9F2F0197F1F7AC
:1001800021503040C9F74F5F5F4F4617570780F344
:1001900008950F931F93CF93DF93CDB7DEB72297C8
:1001A0000FB6F894DEBF0FBECDBF7A8369830C2FE4
:1001B0001D2F0F5F1F4F712F602F53DF912F802F47
:1001C000BDDF82E390E0CFDF80E593EC0197F1F7AC
:1001D00022960FB6F894DEBF0FBECDBFDF91CF9150
:1001E0001F910F910895C7EDD0E0DEBFCDBF8FEF17
:1001F00081BBAC2FBD2F1196E8E6F0E088E00190BE
:100200000D928150E1F78C2F9D2F019697DF84E1AD
:1002100090E0A9DFF8CF5527002480FF02C0060E2A
:10022000571F660F771F6115710521F09695879509
:0C023000009799F7952F802D0895FFCFBF
:10023C0001010101010101010101010101010101A2
:0400000300000132C6
:00000001FF
